:020000040800F2
:1000000070090020D5000008D92700089B200008AF
:1000100000000000000000000000000000000000E0
:10002000000000000000000000000000952800080B
:1000300000000000000000002128000897280008A8
:10004000E7000008E700000885280008E70000082E
:10005000E7000008E700000895050008E700000831
:1000600000000000E7000008E7000008590500084C
:10007000E7000008E700000800000000E7000008B3
:1000800000000000E7000008000000000000000081
:10009000E700000800000000E70000089D200008BD
:1000A000E7000008E7000008E7000008E700000894
:1000B000292F0008E70000080000000000000000F1
:1000C0000348854600F03CF9004800474D330008DE
:1000D000700900200448804704480047FEE7FEE717
:1000E000FEE7FEE7FEE7FEE7A5290008C1000008DD
:1000F00030B50B46014600202022012409E00D46C0
:10010000D5409D4205D31D469540491B2546954047
:1001100040191546521E002DF1DC30BDF0B51FB45C
:100120000646002082B005464024019100901BE065
:10013000019922460F46304600F0B8F8049A059B14
:10014000801A994110D310461946224600F09EF8B5
:10015000361A8F410197224601200021009F00F0AE
:1001600095F838184D4100902046641E0028DFDCC9
:10017000019B00982946324607B0F0BD70B5194C76
:1001800000683C21FFF7B4FF21603C21FFF7B0FF7E
:1001900061601821FFF7ACFF0546A1600721001D33
:1001A000FFF7A6FFA1611048A90008180F49FFF743
:1001B0009FFF443060618808E0613B2803D3217DC4
:1001C000890700D0401C0021094B0A462161995C37
:1001D000814203D8401A521C2261F8E7401CE060BB
:1001E000204670BD440500206C0B0000B5050000E2
:1001F0000D38000803460B439B0703D009E008C9EC
:10020000121F08C0042AFAD203E00B780370401CC6
:10021000491C521EF9D27047D2B201E00270401C54
:10022000491EFBD270470022F6E710B513460A4676
:1002300004461946FFF7F0FF204610BD30B50546CD
:100240002A460B4610781C78521C5B1C002801D0F3
:10025000A042F7D0002C03D0002802D06D1CEFE79D
:10026000284630BD421C0178401C0029FBD1801A71
:10027000704770B5064602F09FFE046805460A22E4
:100280000021304600F024F82C6070BD10B5202A03
:1002900004DB0146203A9140002010BD914020230C
:1002A0009C1A0346E3401943904010BD10B5202A24
:1002B00004DB0846203AD040002110BD0B46D34055
:1002C000D0402024A21A91400843194610BD0000D6
:1002D000F7B5009C0F4600262578641C002D05D03C
:1002E00000F040F80068405DC007F5D12B2D02D02A
:1002F0002D2D18D0641E39462046029A00F036F89B
:10030000002F04D03968A14201D1009939607105EC
:10031000022400290BDA4042002803DD02F04CFEE3
:100320000460A007FEBD012080020643E3E7002829
:10033000F8DA02F041FE04600048FEBDFFFFFF7FD7
:10034000064C0125064E05E0E36807CC2B430C3C28
:1003500098471034B442F7D3FFF7B6FEA038000830
:10036000C0380008004870479C380008F7B582B0D4
:10037000029C00272078641C15460197302802D083
:10038000002D15D015E020780127641C782804D0B2
:10039000582802D0002D09D00BE0002D01D0102DDF
:1003A00007D1002710252078641C02E0082500E012
:1003B0000A250026009610E00099012769430818D5
:1003C000020C294680B2714300908E183804864290
:1003D00001D3012001902078641C294600F019F80F
:1003E0000028E9DA0398002805D0002F01D0641E08
:1003F00000E0029C04600198002806D002F0DCFDB9
:1004000002210160C81E05B0F0BD00993004084308
:10041000F9E73A2800D23038202302469A43412A8D
:1004200001D310463738884201D30020C0437047BB
:1004300038B50446064805490068FFF759FE604391
:1004400000E0401E00900028FBD138BD40420F0064
:100450000800002070B58AB00024054600941421DD
:1004600003A80194FFF7DFFE28460294FFF701FF7F
:10047000089008A8FFF782FE017D6A466439CEB273
:100480001670017C491CCDB25570047B9470017AC2
:100490000831D170017911710078507100F09EFD22
:1004A00001211A4801F08EF91949884229D0194AC8
:1004B0000121164801F08CF96846C1780173017971
:1004C000417341798173002203A9104801F0CCFAED
:1004D000002804D010A002F051FD00F079F80121AD
:1004E0006846017245728472C672002202A90748EA
:1004F00001F058FA002804D007A002F03FFD00F0F8
:1005000067F80DA002F03AFD0AB070BDD0000020DF
:10051000503000005050000043616C696272617499
:10052000696F6E5F54696D6573206572726F722EAC
:100530002E2E0D0A0000000043616C696272617426
:10054000696F6E5F54696D6573207375636365735E
:10055000732E2E2E0D0A000010B5024800F00AFA84
:1005600010BD0000FC04002030B5446C1C252C405C
:100570000125A540046C6560046863608368102BE6
:10058000036803D099600068C26030BD9A6000685B
:10059000C16030BD10B5082000F0D6FA10BD0000D3
:1005A00010B5094801680A6820231A430A600168E7
:1005B0000B68102213430B600068026212010349AA
:1005C000014801F081FC10BD7C040020FA000020ED
:1005D00070470000F8B51E4615460F46FFF72EFE81
:1005E00004463846FFF73EFE00192946FFF726FE6F
:1005F0000546002C03D0002D01D0AC4204D907A041
:1006000002F0BCFC0020F8BD3846FFF72BFE0119B4
:100610006A1A3046FFF7EEFD0120F8BD7374726967
:100620006E67206E616D65206E6F7420666F756EEB
:1006300064210A00F8B506460D464036317C012992
:100640000DD00121317401688A68520709D5416DC6
:10065000202211434165002030740120F8BD0220A2
:10066000F8BD174B6A68D80547109A42154C8A6A3C
:100670002B6812D05B035B0B1A438A62296849031B
:1006800005D5A1680143A1600A20FFF7D1FE2868C3
:10069000800312D5A06838430EE05B035B0B9A43DE
:1006A0008A622968490302D5A1688143A16028684C
:1006B000800302D5A068B843A06000203074F8BD64
:1006C000011000000027014070B5040006D0606DE5
:1006D000264600254036002802D006E0012070BDE5
:1006E000A5653574204600F0D3F8606DC00603D4CC
:1006F00021688868400705D5606D10210843606552
:100700003574EBE7606DFF22013290430222104303
:10071000606588688207920F5B48012A02D10A68E7
:10072000D2072BD1032362689B079A4205D05B4214
:100730009A4202D05B009A4209D10A69920092085B
:100740000A6121680A6963681A430A610CE00A6950
:10075000920092080A6181680F229204914381609D
:1007600081686268114381602168CA6818239A43CE
:10077000CA602168CA68A3681A43CA6081680122F6
:100780005206914381608168A28E520611438160B6
:1007900020688168C90004D48168012212071143CE
:1007A00081602068C168394A1140C1602069E168F0
:1007B000022825D000200143204620300278037B08
:1007C00052035B001A431143226B1143A269920347
:1007D0001143E269D20311432268D3681943D160FF
:1007E000616A0A46FF3AC23A05D0A26A11432268FA
:1007F000D3681943D16042780121012A02D00BE06D
:100800000420D8E70078002823D0606D2022104310
:100810006065A06D0843A065E06B012820681FD0CB
:100820000169C90703D001694908490001612068CD
:100830004169C908C900416120684169A26B11433F
:100840004161A565606D80088000401C60650020E6
:1008500070BD2068C26801231B041A43C260DBE735
:100860000269FF239B009A43026120680269236C9E
:10087000A66C1A43636C33431A4302612068026911
:100880000A430261D3E70000002701401902FEFF7E
:1008900010B586B0044614216846FFF7C4FC0E4923
:1008A0002068884216D10D48416B421511434163BF
:1008B000C16A01221143C162C06A694610400590B5
:1008C00040200090032001900020029005200007A6
:1008D00000F046F906B010BD0024014000100240AF
:1008E00030B5014620314A790023022A04D004227F
:1008F000C2630B71012030BD026814680E25AC4341
:10090000146002681468640864001460446C1C225B
:10091000144001221546006CA54045604A711846F6
:100920000B7130BD70B50024014620314A79022A8E
:1009300003D00421C163012418E0026813680E2566
:10094000AB431360026813685B085B001360436C81
:100950001C221340012215469D40036C5D604A71C4
:1009600000220A71816B002900D08847204670BDA3
:10097000C06B7047F0B4016C0D6801680C68466C80
:100980001C2304221E401746B7402F420ED0670793
:100990000CD50C68A40602D40C6894430C60416C1E
:1009A00019408A40016C4A60016B1AE00227B74087
:1009B00002462F402032002F17D0A70715D50C680C
:1009C000A40605D40C680A25AC430C6001215171C2
:1009D000446C02211C40036CA1405960002111713C
:1009E000C16A002918D0F0BC08470827B7402F4239
:1009F00012D0240710D50C680E25AC430C60446C53
:100A000001211C400B46A340046C6360C16351711B
:100A100000211171416BE4E7F0BC704770B5040030
:100A20003CD01F48256814212818FFF761FB80007F
:100A300060641C4820640221204620300246417137
:100A400029681948E3680140A0686669184323696A
:100A500033431843A3691843E3691843236A1843CF
:100A6000084328600121A0688903884210D00D48FE
:100A70008030836A656C1C210D400F26AE40B34365
:100A80008362656C63680D40816AAB400B4383628F
:100A90000020E06301215171107170BD012070BD13
:100AA000F8FFFDBF000002400F80FFFFF8B50446CD
:100AB0008C46203001790025012909D001260671D4
:100AC00041790027012905D0077102252846F8BD84
:100AD0000220F8BD02214171E763206801684908DE
:100AE0004900016061462046FFF73EFD206B00286B
:100AF0002068016801D00E2205E0042291430160C4
:100B0000206801680A2211430160206801683143AE
:100B10000160DBE770B5044600F0E4F80546601CB0
:100B200000D0641C00F0DEF8401BA042FAD370BD78
:100B300010B5082804D1034801F050F901F0B0FEC7
:100B400010BD00007C04002010B504494A6902422F
:100B500002D04861FFF7ECFF10BD00000004014027
:100B6000F8B500230124A2E027469F403A4070D008
:100B70004D68022D01D0122D14D1DD08AD002D18C5
:100B800000952D6A5E07AC46F50E0F26AE46AE40C8
:100B90006546B543AC460E697546AE4065462E4384
:100BA000009D2E624D68012D05D0022D03D0112D20
:100BB00001D0122D16D185680326AC465D00AE46E5
:100BC000AE406546B543AC46CE687546AE40654618
:100BD0002E43866046680D79BE43ED06ED0F9D40BD
:100BE0003543456006685F000325BD40AE46AE4311
:100BF0000D79B446AE07B60FBE4065462E4306607B
:100C0000C6687546AE438D68BD403543C5604D68C6
:100C1000ED004BD5294D6E6B26436E639E08284D23
:100C2000B6007519AC46AD689E07360F0F27B74062
:100C3000BD4305273F07B84201D1002715E0214FEA
:100C4000B84201D1012710E01F4FB84202D102275C
:100C50000BE02BE01D4FB84201D1032705E01C4FEC
:100C6000B84201D1052700E00627B7402F4365466B
:100C7000AF60184D2E684F689643FF0300D51643AA
:100C80002E606E684F689643BF0300D516436E60B2
:100C9000AE684F689643FF0200D51643AE60EE681B
:100CA0004F689643BF0200D51643EE605B1C0A688E
:100CB0001546DD4000D057E7F8BD000000100240A7
:100CC000000001400004005000080050000C0050DB
:100CD000001C005000040140002A01D081617047CF
:100CE00081627047014800687047000004000020DE
:100CF00070B5024640325378202B1CD11378012B5B
:100D000019D00123137024245470046825689D436E
:100D10002560046825681E03B543256004682568BE
:100D20000D43256000680168194301602020507060
:100D30000020107070BD022070BD70B502464032B8
:100D40005378202B1BD11378012B18D00124147059
:100D50002423537003681D68A5431D6005682B6834
:100D60000F263602B343090219432960006801685F
:100D700021430160202050700020107070BD0220BF
:100D800070BD7047704770B503689A691968D2439F
:100D9000D40508D4CC43240605D4446C01252C4347
:100DA00044642C02DC61530509D4CB431B0606D4F2
:100DB000436C082423434364E3010468E361920520
:100DC00009D4C943090606D4416C02221143416487
:100DD00011020268D161416C0B22114201D001F075
:100DE000F9F970BD026891691268436B002B00D05D
:100DF000184770477047000070B5040006D02546BC
:100E0000403568780026002802D005E0012070BD3A
:100E10002E70204600F04CF824206870206801688D
:100E20004908490001600F2160680906884321686C
:100E3000086121688A680120C00382438A60E168F2
:100E40000129A16808D021229202114322689160F1
:100E5000E168022902D005E00143F7E70121226899
:100E6000C902516021684A680F4B1A434A602168E1
:100E7000CA688243CA60616920690843A16909029E
:100E800008432168C860216AE06908432168086056
:100E900020680168012211430160666420206870A7
:100EA0002663AE70002070BD008000027047000015
:100EB00010B586B0044614216846FFF7B4F914490A
:100EC0002068884221D1134CE16A02200143E1628B
:100ED000E16A01400591C02000901220012101909B
:100EE000032002910491039069460B48FFF738FEF6
:100EF000A06B012149050843A063002201211720AE
:100F000000F058F8172000F04BF806B010BD0000B4
:100F10000054004000100240000400507047704729
:100F200002480168491C016070470000040000206D
:100F300010B5084800240168402211430160204692
:100F400000F00AF8002801D0012401E000F01CF8AC
:100F5000204610BD0020024070B5054609487D219D
:100F60000024C9000068FFF7C3F800F00BFE00285A
:100F700001D0012404E000222946501E00F01AF896
:100F8000204670BD080000200448416B0122114337
:100F90004163816B0204114381637047001002407A
:100FA000C106C90E01208840014908607047000051
:100FB00000E100E010B501F011FC10BD024801682D
:100FC000021511430160704700700040024801683B
:100FD00042151143016070470070004002480168EB
:100FE0008215114301607047007000400A4B1A6877
:100FF0009208920002431A600848036904221343CE
:101000000361012906D040BF20BF20BF0169914381
:101010000161704730BFF9E70070004000ED00E06B
:10102000F8B504460078544D800672D5524E00271C
:10103000403EB06BC00004D4B06BA9050843B06358
:1010400001274E480168C90511D401688215114372
:101050000160FFF747FE009005E0FFF743FE0099AF
:10106000401A642837D845480068C005F5D532686D
:101070000321090560680A400140914208D08103BC
:10108000890F032904D13168890301D50120F8BDF6
:101090002A69032109040A4022D0084090421FD047
:1010A000207880061CD528692A6988430121C90453
:1010B0000A432A612A698A432A612861C0050FD53B
:1010C000FFF710FE009008E0FFF70CFE0099411AB0
:1010D0002B48814201D90320F8BD28698005F3D54A
:1010E00061688803800F032805D1326800058243B8
:1010F00001400A43326028690322616812041140EA
:1011000008432861002F04D0B16B01200007814300
:10111000B1632078C00705D0E868A1688008800026
:101120000843E8602078800705D5E8680C218843EB
:10113000E1680843E8602078400706D5E8680321A5
:101140008902884321690843E8602078000706D5B2
:10115000E86803210903884361690843E86020784F
:10116000000606D5E868032189048843A16908437D
:10117000E8600020F8BD0000401002400070004010
:1011800088130000F8B50E4605007DD0534800686E
:10119000C007C00FB0420AD2504801684908490050
:1011A000314301600068C007C00FB04271D1287898
:1011B0004B4C800705D5E068F0218843A9680843B7
:1011C000E0602878C00752D06868022817D003284A
:1011D00018D02168012818D08905002959DAE1685A
:1011E000890889000143E160FFF77CFD69680746D3
:1011F000022912D003291CD0012926D033E021680E
:101200008903EAE721688901E7E74907E5E7FFF78E
:1012100069FDC11B3348814223D8E0680007800F75
:101220000228F4D123E0FFF75DFDC11B2D48814268
:1012300017D8E0680007800F0328F4D117E0FFF704
:1012400051FDC11B274881420BD8E0680007800F81
:101250000128F4D10BE0FFF745FDC11B2148814275
:1012600001D90320F8BDE0680007800FF3D11B48C7
:101270000168C907C90FB1420DD901684908490081
:1012800031430160006800E003E0C007C00FB042D6
:1012900001D00120F8BD2878400706D5E068072175
:1012A00009028843E9680843E0602878000707D509
:1012B000E0680721C90288432969C9000843E06042
:1012C00000F036F8E168084A0906090F515CC84089
:1012D000064908600020FFF73FFEF8BD00200240ED
:1012E0000010024088130000EC37000808000020BE
:1012F000044805490068C968044A4905490F515C1A
:10130000C84070470800002000100240053800085F
:10131000044805490068C968044A8904490F515CBA
:10132000C84070470800002000100240053800083F
:1013300010B5184AD1680C20084004280BD00828A2
:1013400010D00C2810D050680004410F0120C003B9
:10135000491C884010BD1068C00601D50E4810BD5C
:101360000E4810BD0E4810BD88020E4B000F185CD1
:101370000902D368890F491CDB0301D5084A05E03F
:101380001268D20601D5044A00E0044A5043FEF731
:10139000AFFE10BD0010024000093D000024F40023
:1013A00000127A00FC370008FEB505007ED0FE4C26
:1013B000E7680C20E6680740012000040640287812
:1013C000C00747D0082F05D00C2F0AD101200004F8
:1013D000864206D1206880033CD568680028E5D0A5
:1013E00038E0012069680004814203D1216801438B
:1013F000216011E0052301221B0492049942216817
:1014000002D111432160F1E781432160216801404D
:101410000091206890432060686800280DD0FFF795
:1014200061FC009005E0FFF75DFC0099401A64281C
:101430007AD820688003F6D50CE0FFF753FC0090C3
:1014400005E0FFF74FFC0099401A6428F0D82068A7
:101450008003F6D42878800755D50923E868042F3F
:101460000DD00C2F01D1002E09D000283BD02168CF
:10147000994301432160FFF735FC064627E02168C8
:10148000490701D5002891D061681F2212029143BB
:101490002A69120211436160216899430143216066
:1014A000FFF746FFE16809060A0F00E079E1BF494E
:1014B000895CC840BE4908600020FFF74DFD002848
:1014C00072D120E0FFF70EFC801B0228B0D8206804
:1014D0004007F7D560681F2109028843296909027E
:1014E000084360600FE02068400840002060FFF77C
:1014F000F9FB064604E0FFF7F5FB801B022897D8AE
:1015000020684007F7D42878C0065FD5002F0CD09C
:10151000A869002849D02068FF21013108432060D4
:10152000FFF7E0FB06462DE0C0E02068800502D50D
:10153000A8690028A7D06068072149038843296A61
:10154000084360606068297F0002000A09060843BA
:101550006060286A410B0120C003491C8840E16893
:1015600009060A0F9149895CC8409149086000202A
:10157000FFF7F2FC002817D128E0FFF7B3FB801B30
:101580000228A3D820688005F7D5606807214903A1
:101590008843296A084360606068297F0002000A66
:1015A00009060843606011E0E1E02168FF20013096
:1015B00081432160FFF796FB064604E0FFF792FBAC
:1015C000801B022872D820688005F7D42878794ECD
:1015D000000724D568690028306910D0012108432C
:1015E0003061FFF77FFB009005E0FFF77BFB009980
:1015F000401A02285AD830698007F6D50FE0400813
:1016000040003061FFF76EFB009005E0FFF76AFBDA
:101610000099401A022849D830698007F6D4287802
:10162000400765D500200290A06BC00006D4A06BD7
:10163000012109070843A063012002905E48016868
:10164000C90511D40168821511430160FFF74AFBF7
:10165000009005E0FFF746FB0099401A642825D862
:1016600055480068C005F5D5FF20AA6801308242C0
:1016700003D131690143316111E001218902002A5E
:1016800007D005231B029A4203D132690A43326113
:10169000EFE7326982433261306988433061A8687C
:1016A00000280FD0FFF71EFB009007E05EE0FFF779
:1016B00019FB0099411A4148814257D83069800589
:1016C000F5D50DE0FFF70EFB009006E0FFF70AFBF3
:1016D0000099411A3948814248D830698005F5D4CB
:1016E0000298002804D0A06B012109078843A06359
:1016F000686A002864D00C2F3ED0012636060228E6
:10170000206805D0B0432060FFF7ECFA05462FE0D3
:10171000B0432060FFF7E6FA074604E0FFF7E2FA7D
:10172000C01B022822D820688001F7D4E96AA86A81
:10173000E2680843296BFD231B049A4311430843C5
:10174000E060206830432060FFF7CCFA054604E0F3
:10175000FFF7C8FA401B022808D820688001F7D597
:101760002EE0FFF7BFFA401B022801D90320FEBD7F
:1017700020688001F5D423E00128F8D0E068012139
:101780000904AA6A014091420BD10F218904EA6A37
:101790000140914205D1032189050840296B884207
:1017A0000ED00120FEBD000000100240EC37000802
:1017B0000800002040100240007000408813000024
:1017C0000020EFE700688900503008180068704773
:1017D00000688900503008180260704770470000A8
:1017E00010B504460068C068400509D52046FFF7DB
:1017F000F5FF2068C16880221140054A8918C16040
:10180000012004490005486101202034607010BDAA
:101810007FFBFFFF0004014010B500680B464068E5
:10182000C021C94301400002000ECC04D870E40E70
:101830005C708C06A40E0904490F9C701970002A74
:101840000AD100F0EEFFD870587800F0EAFF587027
:10185000987800F0E6FF9870002010BD30B50B4678
:101860000168896A5960016809694904490C9960ED
:10187000006804680F482146014088024D04800E2C
:1018800018706D0E49065D70490E99706102490E1F
:1018900040242140D970002A0AD100F0C2FF1870FC
:1018A000587800F0BEFF5870987800F0BAFF987032
:1018B000002030BD7F7F7F00F8B5040050D0254662
:1018C00020356878002803D12870204600F052F8AF
:1018D000022068702168CA2048622168532048624B
:1018E000204600F0B2FFFF2604270028206802D01F
:1018F00046626F7034E081681D4A11408160216842
:1019000088686268A369104322691A43104388609B
:101910002168E06808612068016922891204114386
:1019200001612068C16880229143C1602068C16C58
:1019300089088900C164E169606901432068C26C5B
:101940001143C1642068806880060BD4204600F0F3
:10195000FFF8002806D0206846626F7000202870CB
:101960000120F8BD20684662012068700020F8BDA3
:10197000BFFF8FFF10B50068084988420DD10848A5
:1019800001690122920411430161002211460220E3
:10199000FFF710FB0220FFF703FB10BD00280040FB
:1019A00040100240F8B505460446203528780B461D
:1019B00001280FD00120287002206870002A0BD067
:1019C000D8789E78000406435878097800024903C5
:1019D000084317E00220F8BD5878C10603D5EF216F
:1019E00008400A305870D87800F023FF0604587871
:1019F00000F01FFF00020643987800F01AFF06432C
:101A00001878400306432168CA20486221685320A1
:101A10004862204600F019FF0027002811D1114824
:101A20000640206846602068C16880229143C160FA
:101A30002068806880060CD4204600F089F80028D1
:101A400007D02168FF204862042068702F700120B1
:101A5000F8BD2168FF204862012068702F700020C7
:101A6000F8BD00003FFFFF00F8B5064604462036EB
:101A700030780D46012822D001203070022070708D
:101A8000206800278068002A1BD0400600D4EF7031
:101A90002978A878090408436978EA7809021204C9
:101AA0001143084300902168CA20486221685320EE
:101AB0004862204600F0C9FE002837D116E0022017
:101AC000F8BD400600D4EF70287800F0B2FE0304A1
:101AD000687800F0AEFE00020343A87800F0A9FE8B
:101AE0000343E878000403430093DCE717490098B8
:101AF00008402168086020688168012292049143AF
:101B000081602969E868084321688A681043886011
:101B10002068C16880229143C16020688068800687
:101B20000CD4204600F014F8002807D02168FF20CC
:101B300048620420707037700120F8BD2168FF20D2
:101B400048620120707037700020F8BD7F7F7F00F1
:101B500070B504460068C168A0229143C160FFF7D8
:101B6000C1F87D260546F60006E0FFF7BBF8401BEE
:101B7000B04201D9032070BD2068C0688006F4D54A
:101B8000002070BD094910B5401E884201D90120CE
:101B900010BD074C60610321081F00F01FFE0020EC
:101BA000A06107202061002010BD0000FFFFFF00A2
:101BB00000E000E0704770B5416F0446856F006833
:101BC000826810261206002A14DA212912D18168AF
:101BD000802291438160A06E002808D0FEF780FE2D
:101BE000002804D0A06EFEF7C3FE20281DD020469A
:101BF00001F04CF820688168490614D5222D12D1D5
:101C00008168402291438160E06E002808D0FEF791
:101C100067FE002804D0E06EFEF7AAFE202804D05C
:101C2000204601F023F8002070BDE667032070BD58
:101C300070470000F8B502680446D06911689368DF
:101C400005072D0F5BD0DD07ED0FFF2621360E4077
:101C50002E4367D0C60706D0CE0504D501261662EE
:101C6000E26F3243E267870702220426002F06DA7A
:101C7000DF0704D027683A62E76F3743E767470713
:101C800006D5DB0704D023681E62E36F1343E367C6
:101C9000020709D520220A402A4305D023680822DA
:101CA0001A62E36F1343E367E26F002A2FD08006C6
:101CB00006D5880604D5216E002901D02046884724
:101CC000E06F21688968490601D4000724D52046C1
:101CD00000F0CCFF20688168490619D58168402250
:101CE00091438160E06E002812D020498163E06E4C
:101CF000FEF718FE00280AD0E06E816B06E085062C
:101D000010D58D060ED5216E1CE020468847F8BD03
:101D10002046FFF78DFFF8BD2046FFF789FF002022
:101D2000E067F8BDC50208D55B0206D501200005B5
:101D300010622046FFF73EFFF8BD030605D50B06EF
:101D400003D5616E0029E0D1F8BD4006FCD54806F8
:101D5000FAD51368204640218B4313602021616728
:101D60000021616600F098F9F8BD0000C92B000859
:101D700010B5040003D0606F002802D007E00120F6
:101D800010BD002170200155204600F027F82420C6
:101D9000606720680168490849000160204600F03A
:101DA0007DFF0128ECD0606A002802D0204600F0B8
:101DB00075FE206841680922D20291434160206883
:101DC00081682A22914381602068016801221143C1
:101DD0000160204600F0C8FE10BD0000F0B587B0DD
:101DE000074614216846FEF71EFA324B3A68002572
:101DF00031480121022404269A4216D1426B8B03FA
:101E00001A434263C26A0A43C262C06A6A46084011
:101E100005900320400231C2032041C205206946DB
:101E20000007FEF79DFE07B0F0BD244B9A42FAD1A1
:101E3000826B01235B041A438263C26A0A43C26253
:101E4000C06A0096C007C00F0590032003900520CC
:101E500002950194694604960007FEF781FE08206A
:101E60000090032003900520019402946946049693
:101E70000007FEF775FE134C1148A560E56041C4EC
:101E8000E560256165618020A561A0600D48083C82
:101E9000FEF7C4FD002801D0FEF79AFBFC66002285
:101EA00011461C20A762FFF785F81C20FFF778F881
:101EB000B9E7000000380140001002400044004033
:101EC00058000240FC040020F8B50446806F20282A
:101ED0004DD100290BD0002A09D00123A0681B0393
:101EE000984206D12069002803D1C80701D00120FB
:101EF000F8BD25466035287C012838D0012028749B
:101F00005820616502530026E6672220A067E06E34
:101F1000002819D01749C162E16E17480863E16EC5
:101F200016484863E06E13468663676D21683A463B
:101F30002431E06EFEF7BAFD002805D01020E067DE
:101F40002E7420206067D2E72E7420680168FF227B
:101F500001321143016020688168012211438160D0
:101F6000206881684022114381600020F8BD022072
:101F7000F8BD0000252C0008632C0008DD2B0008AC
:101F800010B500680A49884211D10A4CE01D6288E8
:101F9000A11DFF30FEF72EF9A11D07A000F0EEFFF6
:101FA000FF210131A01DFEF73EF90120207010BD78
:101FB00000440040F400002049444C452D2D2D2DB7
:101FC0002D3E25730D0A00007047FFB50446406F93
:101FD00083B017460D4620285CD1002D0AD0002F73
:101FE00008D0A168C001814207D12069002804D12E
:101FF000E80702D0012007B0F0BD20466030029013
:10200000007C012846D00298012101740020E0677D
:1020100021206067FEF766FE264640360190378233
:1020200077820120A1680003814202D12069002843
:1020300002D02F46002511E000270FE0002280216A
:10204000204600F03FFF002815D1002F15D0216851
:10205000387888627F1C708A401E7082708A019B6B
:10206000002806980090E9D100224021204600F087
:1020700029FF002808D00320BDE728882168C00573
:10208000C00D8862AD1CE6E7202060670299002041
:102090000874B0E70220AEE77047FEE710B50648C7
:1020A000006880694005400F034802D0FEF76BFED0
:1020B00010BDFEF797FE10BD7000002010B5806ABD
:1020C0000021826B9163C26B9163014640314A7873
:1020D000602A02D0FEF78EFE10BD20224A70FEF765
:1020E00050FE10BDF0B503460022CE074033282431
:1020F000B025002E05D05E7842222746B74300D097
:10210000F2228E0705D544265B7832439C4300D0EB
:102110002A434B0701D5B8231A4311238B4301D11E
:1021200090231A4312238B4301D160210A43006894
:10213000016891430160F0BD01688A69D24392074A
:1021400001D400228A6200688169C943C90703D0AB
:1021500081690122114381617047F8B50546044643
:102160004035687828218143206804D00821C16166
:1021700000202870F8BD8169C903CF0F8169FE2353
:102180000E0C81681E408A05C168920D19408C466C
:10219000E168022916D10621D3090E400B409E4268
:1021A0000FD1A16C491CA164A16C0229E2D10021CC
:1021B000A1640823C361297039462046FEF7E2FD79
:1021C000F8BD664604212046FFF78CFF00202870EA
:1021D0003246F1E7F8B505460446403568780026F2
:1021E000AE702D4AE2626685626C0A436264202703
:1021F000282823D0292821D02A281FD0072120468B
:10220000FFF770FF6878602800D06F702663666300
:10221000206801684A042149026819D501239B03FB
:102220009A430260A06B002826D081632E70A06BB9
:10223000FEF778FB00281FD0A06B1BE0032120468F
:10224000FFF750FF28206870266315486063DFE7BA
:10225000120412D502680123DB039A430260E06B8B
:10226000002809D081632E70E06BFEF75BFB00282D
:1022700002D0E06B816B8847F8BD6878602804D095
:102280002E702046FEF7B6FDF8BD6F702E7020460A
:10229000FEF777FDF8BD00000000FFFFBD2000083D
:1022A0004724000870B504461648E06200252563FF
:1022B000202220464030064642708570C843656340
:1022C000400712D420680421406A626A1070606A74
:1022D000401C6062208D002807D0401E2085608D44
:1022E000401E6085606C0843606407212046FFF74C
:1022F000F9FE21681020C86135702046FEF7D6FD32
:1023000070BD00000000FFFFF8B5044600680F46EE
:1023100005682021C16107212046FFF7E3FE206800
:1023200041680122D2031143416020684168314A6B
:10233000114041602046FFF7FFFEE843410401D40D
:10234000A06B02E0000405D4E06B002802D0006816
:1023500040686085F8434007042100280FDB2068AF
:102360008F43406A626A1070606A401C6062208D10
:10237000002804D0401E2085608D401E6085608D41
:10238000002802D0606C084360640026266325465E
:102390004035AE706663606C00280BD0616C2046DF
:1023A000FFF718FF6878282803D139462046FFF741
:1023B00079FFF8BDE06A104FB8420AD0204600F01D
:1023C0001DF8E762202068702E702046FEF76EFD33
:1023D000F8BD6878222806D0202068702E7020462C
:1023E000FEF79DFDF8BD202068702E702046FEF798
:1023F00095FDF8BD00E800FE0000FFFF70B5002667
:10240000044640340546A6706178282029290ED05C
:1024100061782A290AD16070222028630221284687
:10242000FFF760FE26702846FEF778FD70BD6070ED
:102430002120286301212846FFF754FE26702846F4
:10244000FEF76DFD70BDF8B50446C06A16460F462E
:1024500025464035297801291CD001212970F943EE
:10246000CA060423F643002A32DBF20630D4628D1A
:102470001021002A10D02268D161616C1943616477
:10248000002802D09905884266D1616C2046FFF78A
:10249000A1FE61E00220F8BD6A78282A08D1012255
:1024A0005206904204D139462046FFF7FBFE53E026
:1024B0006A78292A09D101221204D04205D0206865
:1024C000C1612046FFF738FE43E02068C16143E068
:1024D0004A071AD4720718D4618D00290DD02168DB
:1024E0009F43496A626A1170616A491C6162218D69
:1024F000491E2185618D491E6185618D00292BD181
:1025000001210904C84224D126E00A0706D4320773
:1025100004D439462046FFF720FE1DE089071BD46E
:10252000B10719D4618D00290DD0606A2168007847
:102530008862606A401C6062608D401E6085208DEC
:10254000401E208508E001210906884201D00028AC
:1025500002D12046FFF752FFF843800605D4B006AB
:1025600003D439462046FFF7CFFE00202870F8BD7F
:102570001CB5002118480091164A01910260C16300
:102580000322920781604260816301220261024658
:10259000C16020321170FF235170C23343628162E7
:1025A000117301638161042241634261C161FEF7DD
:1025B0008BF8002801D0FEF70BF808480090800146
:1025C000019069460448FEF735F8002801D0FDF770
:1025D000FFFF1CBD00240140140000204000001833
:1025E00008B50848016B012211430163006B1040DC
:1025F0000022009011460B20FEF7DCFC0B20FEF7BA
:10260000CFFC08BD00100240F0B587B01421684629
:10261000FDF709FE2A48C26A04210A43C262C26A5F
:102620000A400592C16A01263143C162C16A314044
:102630000591C26A02210A43C262C06A05270840A6
:102640003F070590002231463846FEF745FB012240
:1026500002213846FEF740FB002238211948FEF7D8
:102660003BFB03208003032500240090694601956D
:1026700002941548FEF774FA0294694638460196AA
:1026800000950394FEF76CFA104800906946019596
:1026900002943846FEF764FAFF200830009069463D
:1026A000019502940748FEF75BFA382000900294E7
:1026B0006946019603940348FEF752FA07B0F0BD4D
:1026C000001002400004005000080050B0990000C3
:1026D00010B5134811490160124941600021816021
:1026E0000161416181610122C161C2600162FEF745
:1026F00083FB002801D0FDF76BFF00210848FEF79F
:10270000F7FA002801D0FDF763FF00210448FEF727
:1027100014FB002801D0FDF75BFF10BD0054004002
:10272000700000205B3D300000B585B01421684684
:10273000FDF779FD0B480A4A0260002141607F22C3
:1027400082600161FF22416122328161C260C16108
:10275000FFF7B2F8002801D0FDF73AFF05B000BD41
:1027600000280040D000002010B50C480A49016044
:10277000E1214902416000218160C1600161816104
:10278000C1610C22016242614162FFF7F1FA002847
:1027900001D0FDF71DFF10BD00380140FC030020F3
:1027A00010B50C480A4901604B21C9014160002164
:1027B0008160C16001618161C1610C22016242617D
:1027C0004162FFF7D5FA002801D0FDF701FF10BDE7
:1027D000004400407C040020704700008307FF2273
:1027E000DB0E9A408907090E994000280BDA000792
:1027F000000F0838830808489B001818C3699343E2
:102800000B43C3617047830804489B001B1818687A
:10281000904308431860704700ED00E000E400E0DA
:10282000704701090A2200075143000F4018C0B247
:1028300070470022014602E00A39C9B2521C0A2937
:10284000FAD21007000E0843704770B504460068BE
:10285000C168490613D40021C943C160FEF742FA9A
:102860007D260546F60006E0FEF73CFA401BB04226
:1028700001D9032070BD2068C0684006F4D500204F
:1028800070BD000010B50248FEF7AAFF10BD0000A1
:10289000D0000020704710B5FEF742FB10BD0000CD
:1028A00030B599B034216846FDF7BDFC142114A859
:1028B000FDF7B9FC1C210DA8FDF7B5FC1B4801680C
:1028C0000322D2029143C214891801600A200090A9
:1028D000002401251020099404900395059568466D
:1028E000FEF762FD002801D0FDF772FE0F20149064
:1028F0001694179400211595189414A8FEF742FC1D
:10290000002801D0FDF764FE2B2012940D900120C9
:1029100040040E900F9410940DA8FEF781FB002840
:1029200001D0FDF755FE19B030BD00000070004029
:1029300030B599B034216846FDF775FC142114A810
:10294000FDF771FC1C210DA8FDF76DFC1448016812
:102950000322D2029143C214891801600A20009018
:1029600000240125102009940490039505956846DC
:10297000FEF71AFD0F201490169417940021159558
:10298000189414A8FEF7FEFB2B2012940D906804F7
:102990000E900F9410940DA8FEF742FB19B030BDB5
:1029A0000070004010480168821511430160C16841
:1029B0000E4A1140C16001680D4A114001608168F2
:1029C0004908490081600168012292049143016035
:1029D000C168FD2212049143C160002101610549D3
:1029E000C003886070470000001002400C40FF8860
:1029F000F6FFF6FE00ED00E030B587B01421684622
:102A0000FDF711FC1C4CA06B21040843A0631B487C
:102A10000168042529430160FEF7D8FAFEF7CEFAD3
:102A2000E06A01210843E062E06A08400590E16A3B
:102A300002200143E162E16A01400591E06A284316
:102A4000E062E06A694628400590082000900C4842
:102A500001900020029005200007FEF781F8002277
:102A600011460620FEF7A6FA0620FEF799FA05A001
:102A700000F084FA07B030BD001002400070004042
:102A80000000111057696C6C20746F20736C6565C1
:102A9000702E2E2E2E2E2E0D0A00000010B5818CC9
:102AA000C90707D001684A6801235B049A43836A17
:102AB0001A434A60818C890707D501684A68012357
:102AC0001B049A43C36A1A434A60818C490707D59D
:102AD00001684A6801239B049A43036B1A434A60C6
:102AE000818C090707D501684A680123DB039A43F3
:102AF000436B1A434A60818CC90607D50268916806
:102B000001231B039943836B19439160818C8906D0
:102B100007D501688A6801235B039A43C36B1A4394
:102B20008A60818C490612D503685A68012109051B
:102B3000046C8A4322435A60026C8A4207D10268BD
:102B4000516803235B059943436C19435160818CA1
:102B5000090607D501684A680123DB04806C9A43A3
:102B600002434A6010BD0000F8B500260446C6675F
:102B7000FEF7B8F8054620680068124F000709D52F
:102B800001212B46002249052046009700F09AF9C2
:102B900000280DD12068006840070BD501212B4685
:102BA000002289052046009700F08CF9002801D00A
:102BB0000320F8BD20206067A067603426740020E1
:102BC000F8BD0000FFFFFF0110B5806A002201463A
:102BD00040314A834A82FFF72BF810BD70B5846AF2
:102BE000606FA56F2168896800260906002906DA4A
:102BF000212804D152200653204600F047F82068CF
:102C00008068400606D5222D04D15A20065320465E
:102C100000F02CF8E06F10210843E0672046FFF732
:102C200007F870BD10B501460968806A0968890611
:102C300014D400225A210A5201680A68FF23013382
:102C40009A430A6001688A68520852008A600168E3
:102C50008A6840239A438A6020218167FFF790F9B0
:102C600010BD10B5806AFFF7AFF910BD01680A68A2
:102C7000FF2321339A430A6001688A685208520090
:102C80008A602021816700210166704701680A6817
:102C9000C0239A430A60202141677047F8B5044673
:102CA0002669A268E76932436669102000253E4321
:102CB0002368324378491E68784F3E4016431E60B1
:102CC00023685A6803263603B243E66832435A60E3
:102CD0002368A2698B4201D0266A32439E680B2783
:102CE0003F02BE4316439E606D4E23686D4AB34259
:102CF0000CD1D2689207920F06D0012A38D0022A4E
:102D000034D0032A20D11EE001201DE0664EB342DC
:102D10000AD1D2680C26324026D0042A28D0082AAC
:102D200024D00C2A10D10EE08B420DD1D66803229C
:102D30009202164018D001229202B61A18D0B61A82
:102D400014D0964200D10820564A0126403A574FE7
:102D5000F6038B4236D100280CD002280DD004286F
:102D600012D008281FD11CE00020EDE70220EBE77D
:102D70000420E9E7FEF7BCFA08E01068C00601D5B8
:102D8000384605E04A4803E0FEF7D2FA002873D03F
:102D9000626851005118814205D81103814202D363
:102DA00003E03046F4E7012566E0010E0602500814
:102DB000002330185941FDF7B1F903210902411AE6
:102DC0003C4A55E0E169B14232D1030000F0E6F837
:102DD00009070A0D06250606062B0600E3E7FEF79F
:102DE00087FA1CE0FEF794FA19E010686168C006E3
:102DF00002D54808304A01E0304A48088018FDF7FB
:102E000077F980B201462E4A10399142CBD8511C35
:102E100001400007400F08432CE0FEF789FA616883
:102E200040004A08EAE76168012248081204E5E721
:102E3000030000F0B3F809070A0D06260606062C63
:102E40000600B0E7FEF754FA1DE0FEF761FA1AE05B
:102E500010686168C00602D54808C01902E014482D
:102E60004A081018FDF744F980B20146144A103997
:102E7000914298D82168C860002020666066284684
:102E8000F8BDFEF755FA61684A088018EAE76168FC
:102E900048088019E6E7000000480040F369FFEFAA
:102EA00000380140401002400044004000093D004D
:102EB0000024F400FFFC0F0000127A000048E80133
:102EC000EFFF0000FFB581B017460E4604460A9D8D
:102ED00009E0681C07D0FDF705FF0499401AA842D5
:102EE0000CD8002D0AD02068C1693046884318D01C
:102EF0000020B842EDD0002005B0F0BD2068016888
:102F0000FF22A1329143016020688168490849008D
:102F1000816020206067A067002060342074032057
:102F2000EAE70120E5E7000070B5104D2868C169A7
:102F30000F4EC9430F4CC9060FD410210162284619
:102F4000FEF739FE2868C169406A0B48006840688E
:102F5000301A60802846FFF713F80448FEF76AFE2F
:102F60003246A11D0148FEF7AFFF70BD7C04002072
:102F700000010000F4000020FC0400200FB410B594
:102F800003A9044B044A029800F02AF810BC08BCBC
:102F900004B01847313300080C00002030B47446E8
:102FA000641E2578641CAB4200D21D46635D5B0045
:102FB000E31830BC1847000000487047100000209C
:102FC00002E008C8121F08C1002AFAD170477047F2
:102FD000002001E001C1121F002AFBD17047000050
:102FE000FFB58FB00546002606E025280AD0129AC4
:102FF000119990476D1C761C28780028F5D1304631
:1030000013B0F0BD002402940121B54A009400E001
:1030100004436D1C2B780846203B98401042F7D1A2
:1030200028782A280ED0022228780146303909292A
:1030300016D802990A2359433039401814436D1C9D
:103040000290F1E7109802C802911090002904DA6A
:1030500001204003044348420290022004436D1CB7
:1030600028782E2817D10420044368786D1C2A285C
:103070000CD110986D1C02C8009110900BE00099C3
:103080000A225143303940186D1C009028780146BF
:1030900030390929F3D928786C2810D006DC4C285F
:1030A0001AD068280ED06A2817D104E0742813D0EB
:1030B0007A2812D110E00120400504430CE00121E0
:1030C000090501E0032109050C436978814203D118
:1030D0000120000524186D1C6D1C2878692874D007
:1030E00006DC00288BD0632827D0642806D16CE04A
:1030F0006E2808D073282CD0752878D0129A119990
:103100009047761C5FE06002400F022809D0032838
:103110000DD00428109801680DD00E60001D10908D
:1031200051E01098F21701680E604A60F6E71098B7
:1031300001680E80F2E70E70F0E710986A46017899
:103140001173001D10900020507303A801900120FE
:1031500005E0109802C8019110900020C04361075B
:103160000CD5002700E07F1C00998F420FDA8742C0
:10317000F9DB0199C95D0029F5D108E0002700E0DD
:103180007F1C8742FCDB0199C95D0029F8D10298B8
:103190002146C01B0290129B119A00F0B3F88019CF
:1031A000C61907E0019801990078491C0191129A0B
:1031B000119990477F1EF5D22146129B119A0298D1
:1031C00000F090F886196D1C16E70A2001901099FE
:1031D00001C910916102490F032900D100B20429ED
:1031E00000D140B2002803DA40422D2103E00DE077
:1031F000210504D52B216A461173012103E0E10763
:1032000011D02021F7E70CAF0C9114E00A200190B7
:10321000109901C910916102490F032900D180B2B0
:10322000042900D1C0B20021EDE70199FCF760FF4D
:1032300030317F1E39700028F7D104A8C01B203020
:103240000190600704D5012000048443009801E048
:10325000012000900199884201DD401A00E0002021
:10326000411800900C9809180298401A0290E00347
:1032700006D42146129B119A029800F043F8861951
:1032800000200D9008E003A9085C129A119990475C
:103290000D98401C761C0D900C998842F3DBE003DE
:1032A0000CD52146129B119A029800F02BF8861932
:1032B00004E0129A302011999047761C0099481E1C
:1032C00000900029F5DC05E03878129A7F1C1199EE
:1032D0009047761C0199481E01900029F4DC6BE7A9
:1032E00009280100F8B5044600251E461746880443
:1032F00004D405E039462020B0476D1C641EF9D582
:103300002846F8BDFFB50446002581B01E46C80317
:1033100001D5302700E02027880404D505E0384691
:103320000399B0476D1C641EF9D5284605B0F0BD61
:1033300013B5044B012269460348FEF746FE009888
:103340001CBD0000FFFF0000FC0300208AB0002726
:103350003D46FDF7EDFDFFF7EBFAFFF755F9FFF7F7
:103360003FF9FFF701FAFFF71BFAFFF7B1F9FFF793
:10337000DBF9FFF7FDF89AA0FFF700FEFDF710F963
:1033800005242407012202212046FDF7A5FC7D2605
:10339000F6003046FDF7BEFB002202212046FDF775
:1033A0009BFC3046FDF7B6FB92A0FFF7E7FD00F06F
:1033B00067F9002202212046FDF78EFC3046FDF71A
:1033C000A9FB012202212046FDF786FC3046FDF7CD
:1033D000A1FBFFF711FB01210846FDF707FEFFF7F0
:1033E0005FFA89A0FFF7CAFD8C4C8D4EE01DFF30BF
:1033F0000690207801287DD127708AA10698FCF7D5
:103400001DFF002834D0012149020698FCF70BFF6C
:1034100085A0FFF7B3FD002D2AD0012208213046F8
:10342000FDF75AFC012210213046FDF755FC002221
:1034300020213046FDF750FC2846FDF76BFB0122AA
:1034400010213046FDF748FC012220213046FDF7CF
:1034500043FC002208213046FDF73EFC00222021DB
:103460003046FDF739FC002210213046FDF734FCD0
:1034700072A10698FCF7E2FE00283ED070A0FFF78C
:103480007DFD012149020698FCF7CDFE002D34D0C8
:10349000012208213046FDF71FFC00221021304692
:1034A000FDF71AFC012220213046FDF715FC2846C5
:1034B000FDF730FB012210213046FDF70DFC012203
:1034C00020213046FDF708FC002208213046FDF798
:1034D00003FC002220213046FDF7FEFB00221021D4
:1034E0003046FDF7F9FB00F0CBF8FFF785FA012134
:1034F000084600E05DE0FDF779FD57A10698FCF76E
:103500009DFE002824D055A10698FCF797FE0028C0
:1035100019D0142101A8FCF786FE01AB4FA24EA1E1
:103520000698FDF757F8C0B2099001A8FCF7A1FE74
:10353000024601A94AA0FFF721FD0998002802D000
:1035400001A8FCF787FF012149020698FCF76BFEF2
:1035500046A10698FCF772FE00282AD000980028A1
:103560002BD0012210213046FDF7B6FB012220218D
:103570003046FDF7B1FB002208213046FDF7ACFBD9
:10358000002220213046FDF7A7FB00221021304603
:10359000FDF7A2FBFDF7A6FB0099451A002000905D
:1035A000294633A0FFF7EAFC012149020698FCF7FF
:1035B0003AFE3220FDF7AEFA1BE7FDF793FB0090D1
:1035C000012208213046FDF787FB012210213046F9
:1035D000FDF782FB002220213046FDF77DFBE3E76B
:1035E00023232323232323232323232323232323AB
:1035F0000D0A000077696C6C206465657020736C3F
:103600006565700D0A000000576561726B55502D9D
:103610002D2D2D2D2D3E0D0A00000000F400002060
:10362000000400504F4E00004040404040404040A9
:103630004040404040404040400D0A004F46460058
:10364000262626262626262626262626262626261A
:1036500026260D0A00000000530000005400000060
:1036600074696D653A2025732C25640043000000C1
:10367000776F726B74696D653A25640D0A000000FE
:10368000F0B587B018223E496846FCF7B3FD3D49C6
:10369000002208461430FEF7E1F83A4800223A4981
:1036A0001430FEF7B9F8384C7D26E07836018119E0
:1036B000A378627835A0FFF761FC324D38A0AB7873
:1036C0006A782978FFF75AFC61786A4649008918B8
:1036D0004039C98FA278E07889188619FF226E32A6
:1036E0001E305043401E08183349E1224843A97850
:1036F0001201411828783C2350436A782D4F5A43D1
:1037000080180818E121C901451A29462BA0FFF7A6
:1037100035FC6078FF24913402280DD9B0070BD115
:1037200064213046FCF7E4FC002927D121463046CD
:10373000FCF7DEFC002921D000201F494843451931
:1037400029461EA0FFF71AFCF01986B26421304604
:10375000FCF7CEFCB1080F1A21463046FCF7C8FC36
:103760001549381848434419214614A0FFF706FCB0
:1037700014A0FFF703FC204607B0F0BD0120DCE7F2
:10378000D4370008BC00002000000020253032643F
:103790002F253032642F253032640D0A00000000DE
:1037A000253032643A253032643A253032640D0ACD
:1037B000000000004EF8FFFF805101005B25755DA1
:1037C00000000000CAB1BCE4B4C153756363657303
:1037D000730D0A0000001F003B005A00780097009C
:1037E000B500D400F300110130014E0100000000CB
:1037F000000000000102030406070809030406088C
:103800000C1018203000000000010203041F1D1FCF
:103810001E1F1E1F1F1E1F1E1F0040404040404015
:103820004040404141414141404040404040404093
:1038300040404040404040404040050202020202F9
:1038400002020202020202020202202020202020A4
:10385000202020200202020202020290909090900A
:1038600090101010101010101010101010101010D8
:103870001010101010020202020202888888888844
:103880008808080808080808080808080808080838
:103890000808080808020202024000001A3800085E
:1038A000C03800080000002014000000C02F0008ED
:1038B000D4380008140000205C090000D02F000854
:1038C00000000000000000000000200000000000D8
:0438D00000000000F4
:04000005080000C12E
:00000001FF
